:040000008A15962D9A
:10000600103083120313FD00FD0B072800000800C3
:0C001600000000000000000000000800D6
:0A0022000320061603200612080052
:10002C0083120313FB01FA01F9018030F800F10C83
:10003C00F00C031C2A287408F90775080318750FAF
:10004C00FA070318FB0A0310F01F32287408FA078A
:10005C0075080318750FFB07FB0CFA0CF90CF80C60
:10006C00031C1D287B08F3007A08F2007908F100C4
:06007C007808F000080006
:10008200243083120313FC00B530FD00FD0B47281A
:0A009200FC0B4728000000000800E6
:10009C007F30831203174005F0007008C000061172
:1000AC008611BF30F0057008C00070177008C000D2
:0A00BC0070080313880011200800EB
:1000C6008312031306118611B83003174004031375
:0600D60088001120080063
:0E00DC00533083120313FD00FD0B7228080041
:1000EA008312031306120615861103174008031319
:0600FA008800112008003F
:100100007F30831203174005F1007108C000711F92
:0E0110008C28061486108E280610861408000F
:10011E00803083120313F0007008083E8400FF3015
:10012E0080000B200B2006150612861506160320DE
:10013E0008080317C000061286110B200B20803012
:10014E00F0007008083E840080014008F0000800AE
:0E015E00831603135B088A005A08820008000B
:10016C0083120313F801F9011030FC00710DF80D26
:10017C00F90D7408F8027508031C750FF9020318C1
:10018C00CE287408F80775080318750FF9070310C3
:0A019C00F00DF10DFC0BBC2808006B
:1001A60083120317B61BDA2803138511DC28031301
:1001B60085150317361BE22803130511E4280313DC
:1001C60005150317B61AEA2803138510EC2803133E
:1001D60085140317361AF22803130510F42803139F
:1001E600051483165F18FA2883120516FC28831255
:1001F600051285160B2085120317B6190529031358
:100206008511072903138515031736190D290313BD
:1002160005110F29031305150317B618152903131E
:100226008510172903138514031736181D29031380
:1002360005101F290313051483165F182529831239
:10024600051627298312051285160B20851283169B
:0C0256005F1C2F29412030296E20080079
:1002620083120317B601B801B9011030BA00043085
:10027200390203186629F030031387008030F0003A
:100282007008073E840003173A09F00070088000E6
:100292000B200B200F3003130705F0007008031723
:1002A200B7007008031960293808B6003708031927
:1002B2005E29B70CB713B60A57290430B900BA0D34
:1002C2003A100430B807B90A38293608F000080095
:1002D2000030831203173602031C7C2936087F3C48
:1002E200031C7C2900303702031C7C2937083F3C61
:1002F200031C7C297D29CE293608C00080203708BE
:10030200C000C00CC013C00CC013C00CC0136320CB
:1003120003173608C0004E208F207008BB008F20C4
:100322007008BB003708C000C00CC013C00CC0135B
:10033200C00CC013632003173608C0004E200730DC
:1003420003173705F0007008B9007008F10001309A
:10035200F00071080319B129F00D7010FF3EAB29AE
:100362007008B9007009BA00BF293A08BB05CB2949
:100372003908BB04CB293908BB06CB293808003A17
:100382000319B6293808013A0319B9293808023A7B
:0C0392000319BC293B08C00075200800BE
:10039E00831203173808073C0318D6297E2A8316C2
:1003AE0003135C08831203173602F000831603133F
:1003BE005D08031C013EF101F10283126F08F40087
:1003CE00F501162070080317BE007108BF0037082C
:1003DE00C0004E2003173808C00063200317BA016F
:1003EE0003136F0803173A020318592A37087F3C84
:1003FE000318022A7E2A3708C00080203808C00061
:10040E00632003173708C0004E208F207008BB00F2
:10041E008F207008BB003708C00080203808C0004D
:10042E00632003173708C0004E2003173E088316BB
:10043E0003136007F00061080318013E83120317CF
:10044E003F07F100700883160313DA007108DB0012
:10045E00AF208A110A12F000700883120317BC0035
:10046E00BE0A0319BF0A7009BD00462A3D08BB002B
:10047E00522A3C08BB00522A3C08BB06522A3908B5
:10048E00003A03193D2A3908013A0319402A39085E
:10049E00023A0319432A3B08C00075200317B70A16
:1004AE00BA0AF7293708C00080203808C000632038
:1004BE0003173708C0004E20FF300317BC00BD01E4
:1004CE00752A3C08BB003C08C00075207E2A031725
:1004DE003D08BB003D08C00075207E2A0317390871
:1004EE00003A0319682A3908013A03196E2A0800DE
:1004FE0083120317A701831603136208003A031D24
:10050E00962A05308312EF0007308316DE00EB309B
:10051E00E0000D30E1002030DC000030DD00831201
:10052E00031727082307840000080319B32A270896
:10053E00230784000008B6002408B7002508B80079
:10054E002608B900CF21831203136F0AF00070083A
:0A055E000317A407A70A962A080055
:100568008030831203172406F00080307002031DC8
:10057800BF2A003023020318C32AA301A401803034
:10058800F000803024067002031DCC2A23087F3C2B
:100598000318D22A7F30A3000030A4008030280638
:1005A800F00080307002031DDB2A00302702031898
:1005B800DF2AA701A8018030F000803028067002E9
:1005C800031DE82A27087F3C0318EE2A7F30A7007E
:1005D8000030A80080302606F00080307002031D2D
:1005E800F72A003025020318FB2AA501A60180304E
:1005F800F000803026067002031D042B25083F3CBE
:1006080003180A2B3F30A5000030A60080302A06C8
:10061800F00080307002031D132B003029020318EC
:10062800172BA901AA018030F00080302A06700239
:10063800031D202B29083F3C0318262B3F30A90017
:100648000030AA0023082702F1002408031C013EF9
:100658002802F2007108AC007208AD0025082902D2
:10066800AE002608031C013E2A02AF008030720645
:10067800F00080307002031D432B00307102031814
:10068800522B2C08003CAC002D08031C013EAD0188
:10069800AD02FF30B000FF30B100562B0130B00082
:1006A8000030B10080302F06F00080307002031D4A
:1006B8005F2B00302E0203186E2B2E08003CAE0074
:1006C8002F08031C013EAF01AF02FF30B200FF301C
:1006D800B300722B0130B2000030B300AC0DAD0D89
:1006E8002C10AE0DAF0D2E102308B6002508B7004C
:1006F8002B08B80069218030831203172F06F000F9
:1007080080302D067002031D8B2B2C082E02031837
:10071800DA2B2C08F0002D08F100F10CF00CF11385
:10072800711BF11770082E02B4007108031C013EFA
:100738002F02B5008312031724082806031DA62BD1
:10074800270823060319D92B80303506F00080309E
:100758007002031DB12B00303402031CBF2B32087A
:10076800A50733080318013EA6072C08B402031C8A
:10077800B5032D08B50230082307F0002408031834
:10078800013E3107F1007008A3007108A4002E088B
:10079800B4072F080318013EB5077008B6002508EE
:1007A800B7002B08B80069219E2B282C8312031749
:1007B8002E08F0002F08F100F10CF00CF113711B5A
:1007C800F11770082C02B4007108031C013E2D02B9
:1007D800B5008312031726082A06031DF52B2908DE
:1007E80025060319282C80303506F0008030700269
:1007F800031D002C00303402031C0E2C3008A30704
:1008080031080318013EA4072E08B402031CB503DF
:100818002F08B50232082507F00026080318013E04
:100828003307F1007008A5007108A6002C08B4076A
:100838002D080318013EB5072308B6007008B70055
:0A0848002B08B8006921ED2B080011
:1008520031217008A3000F3003130705F0000319BC
:0E086200342C03202C2C03172308F000080070
:10087000831603135F10831203172308B600D320D7
:0608800083165F1408005E
:1008860083120317A601053026020318512C2608E9
:100896002507840020308000A60A462C2608250756
:1008A60084008001A60326082507A7000A30F40065
:1008B600F5012308F0002408F100B6207808F000BE
:1008C6007908F1003030F007031727088400700814
:1008D60080000A30F400F5012308F0002408F10036
:1008E600B62070080317A3007108A4000030710633
:1008F600031D7F2C00307006031D822C842CA6035A
:04090600562C080063
:10090A0083120313C601C70180304706F000803006
:10091A007002031D922C503046020318AB2CFF3094
:10092A0089000730FC007D30FD00FD0B9A2CFC0B82
:10093A009A2C89010730FC007D30FD00FD0BA32CA9
:10094A00FC0BA32CC60A0319C70A892C0230FB0028
:10095A004530FC00A930FD00FD0BB12CFC0BB12C7D
:10096A00FB0BB12C00000000C601C701803047060E
:10097A00F00080307002031DC42C50304602031868
:10098A00DD2CFF3089000730FC007D30FD00FD0BB7
:10099A00CC2CFC0BCC2C89010730FC007D30FD00EF
:1009AA00FD0BD52CFC0BD52CC60A0319C70ABB2C88
:1009BA000230FB004530FC00A930FD00FD0BE32CA2
:1009CA00FC0BE32CFB0BE32C00000000C601C70163
:1009DA0080304706F00080307002031DF62C50303C
:1009EA00460203180F2DFF3089000730FC007D30C6
:1009FA00FD00FD0BFE2CFC0BFE2C89010730FC00D0
:100A0A007D30FD00FD0B072DFC0B072DC60A0319CF
:100A1A00C70AED2CC601C70180304706F0008030B6
:100A2A007002031D1A2D503046020318332DFF3071
:100A3A0089000730FC007D30FD00FD0B222DFC0BE8
:100A4A00222D89010730FC007D30FD00FD0B2B2D86
:100A5A00FC0B2B2DC60A0319C70A112D0230FB0005
:100A6A004530FC00A930FD00FD0B392DFC0B392D5A
:100A7A00FB0B392D00000000C601C7018030470674
:100A8A00F00080307002031D4C2D503046020318CE
:100A9A00652DFF3089000730FC007D30FD00FD0B1D
:100AAA00542DFC0B542D89010730FC007D30FD00CC
:100ABA00FD0B5D2DFC0B5D2DC60A0319C70A432DDC
:100ACA000230FB004530FC00A930FD00FD0B6B2D08
:100ADA00FC0B6B2DFB0B6B2D00000000C601C70140
:100AEA0080304706F00080307002031D7E2D5030A2
:100AFA0046020318972DFF3089000730FC007D302D
:100B0A00FD00FD0B862DFC0B862D89010730FC00AC
:100B1A007D30FD00FD0B8F2DFC0B8F2DC60A0319AE
:060B2A00C70A752D08004A
:100B300083120313C601C70180304706F0008030DE
:100B40007002031DA52D503046020318C22DFF3040
:100B500089000D30FC00FB30FD00FD0BAD2DFC0BC2
:100B6000AD2D0000000089010D30FC00FB30FD00C0
:100B7000FD0BB82DFC0BB82D00000000C60A0319B0
:100B8000C70A9C2D0230FB004530FC00A930FD0057
:100B9000FD0BC82DFC0BC82DFB0BC82D0000000061
:100BA000C601C70180304706F00080307002031D87
:100BB000DB2D503046020318F82DFF3089000D3030
:100BC000FC00FB30FD00FD0BE32DFC0BE32D0000D2
:100BD000000089010D30FC00FB30FD00FD0BEE2D07
:100BE000FC0BEE2D00000000C60A0319C70AD22D27
:100BF0000230FB004530FC00A930FD00FD0BFE2D4E
:100C0000FC0BFE2DFB0BFE2D00000000C601C701F2
:100C100080304706F00080307002031D112E5030E6
:100C2000460203182E2EFF3089000D30FC00FB30E9
:100C3000FD00FD0B192EFC0B192E00000000890190
:100C40000D30FC00FB30FD00FD0B242EFC0B242E90
:0E0C500000000000C60A0319C70A082E08009B
:100C5E00831203171008F2007208F000F20A7008EF
:100C6E008400000803193C2E332E10087202F00087
:0C0C7E000130F002F101031CF10308003A
:100C8A0083120313EE01292470080313EE0070087F
:100C9A00013A03195A2E44300317A3004030A40026
:100CAA000330A5000130A6007F2203136E08031942
:100CBA00482E7C2E6130EE00A02E6430EE00A02E6D
:100CCA006730EE00A02E6A30EE00A02E6D30EE00E6
:100CDA00A02E7030EE00A02E7430EE00A02E7730D9
:100CEA00EE00A02E0330C300EE01ED01072F6E08BF
:100CFA00023A03195F2E6E08033A0319622E6E0830
:100D0A00053A0319652E6E08063A0319682E6E080D
:100D1A00073A03196B2E6E08093A03196E2E6E08EC
:100D2A000A3A0319712E6E080B3A0319742E6E08CB
:100D3A000D3A0319772E6E0843060319A82EED0102
:100D4A006E08C300FC2E02306D020318AE2EED0AA7
:100D5A00FC2E03306D020318FC2E6E08503A03195C
:100D6A00FB2E6E08513A0319FB2E6E08523A0319EC
:100D7A00FB2E6E08573A0319FB2E6E08583A0319D0
:100D8A00FB2E6E08593A0319FB2E0030003A031D58
:100D9A00D02E70306E060319FB2E0030003A031D68
:100DAA00D82E71306E060319FB2E0030003A031D4F
:100DBA00E02E72306E060319FB2E0030003A031D36
:100DCA00E82E77306E060319FB2E0030003A031D19
:100DDA00F02E78306E060319FB2E0030003A031D00
:100DEA00F82E79306E060319FB2EFC2EED0A6D08DB
:100DFA006E07F0007008EE002B08443E840070086D
:060E0A008000452E0800E7
:100E10000030831203171202031C132F12083F3CE9
:100E2000031C132F142F432F003010020318192F07
:100E3000900110087F3C03181F2F7F309000003076
:100E400011020318242F910111087F3C03182A2F47
:100E50007F309100100811020318342F10089400FD
:100E6000110890001408910010081102031C432F70
:100E70001008B6001208B7001308B80069218312E1
:080E80000317900A342F08004B
:100E88000030831203171202031C4F2F12087F3CF5
:100E9800031C4F2F502F7F2F003010020318552F9F
:100EA800900110083F3C03185B2F3F309000003042
:100EB80011020318602F910111083F3C0318662F97
:100EC8003F309100100811020318702F1008940089
:100ED800110890001408910010081102031C7F2FBC
:100EE8001208B6001008B7001308B8006921831269
:080EF8000317900A702F080097
:100F00008312031306108614031792011208073C7C
:100F1000031C9B2F1208C0006320031791011108C6
:100F20003F3C031C992F1008C00075200317910A3D
:100F30008F2F920A862F8610061492011208073C02
:100F4000031CB32F1208C00063200317910111087E
:100F50003F3C031CB12F1008C00075200317910AF5
:080F6000A72F920A9E2F080042
:100F6800C62F803083160313ED00D92FC030ED0053
:100F7800D92F9430ED00D92FD430ED00D92F8030FF
:100F8800ED00D92F831603136D08013A0319B52F05
:100F98006D08023A0319BA2F6D08033A0319BD2FD9
:100FA8006D08043A0319C02FC32F6E03F0006D08B3
:100FB800F0077008ED005F14700883120317B6007D
:100FC800D32083165F106F0883120317B600D3204F
:060FD80083165F140800FF
:100FDE00AF208A110A128000840ADA0A0319DB0A8A
:080FEE00F003031DEF2F0800C2
:101000000030831203171506031D0828003014064C
:10101000031D14281008B6001208B7001608B800FF
:101020008A1169218A15D929831203179B019C0112
:101030009F01A0011408990015089A001408A10046
:101040001508A200100812029D001108031C013EA1
:1010500013029E001408F0001508F100F00DF10DC8
:10106000701070089700710898007008033C970092
:101070007108031C013E980198021908013EF10015
:1010800000300318013E1A07F20080301C06F00001
:10109000803072067002031D4F2871081B0203186E
:1010A00065291B081007F00011080318013E1C07F2
:1010B000F1007008A3007108A40019081207A50028
:1010C00013080318013E1A07A6007008A70071084C
:1010D000A80019081202A9001A08031C013E1302F5
:1010E000AA001608AB008A11B4228A158030831238
:1010F0000313F000803003171C067002031D8228C2
:101100001B08003C0318A9281B081002F0001C084B
:10111000031C013E1102F1007008A3007108A40035
:1011200019081207A50013080318013E1A07A600A4
:101130007008A7007108A80019081202A9001A086F
:10114000031C013E1302AA001608AB008A11B42248
:101150008A158312031722081A06031DB1281908DD
:10116000210603191D2921081207F000130803188E
:10117000013E2207F1001D08F002031CF1031E08C6
:10118000F1027008A3007108A4001F081207A5004F
:1011900013080318013E2007A6007008A700710875
:1011A000A8001F081202A9002008031C013E130218
:1011B000AA001608AB008A11B4228A158030831267
:1011C0000313F0008030031722067002031DEA2883
:1011D0002108003C0318172921081202F0002208F8
:1011E000031C013E1302F1001D08F002031CF10371
:1011F0001E08F1027008A3007108A4001F0812075E
:10120000A50013080318013E2007A6007008A700D8
:101210007108A8001F081202A9002008031C013E43
:101220001302AA001608AB008A11B4228A15831291
:1012300003171908A1001A08A20080301806F00050
:1012400080307002031D26290030170203183D2943
:101250001B08F0001C08F100F00DF10D7010F00DEE
:10126000F10D70100630F0070318F10A70089707A7
:1012700071080318013E9807612919081B02F30041
:101280001A08031C013E1C02F4007308F0007408E5
:10129000F100F00DF10D7010F00DF10D70100A302D
:1012A000F0070318F10A7008970771080318013E48
:1012B000980701309902031C9A031B089F001C0821
:1012C000A0009B0A03199C0A3D2801301B02F10073
:1012D0000030031C013E1C02F20072082206031DAE
:1012E0007329210871060319D92921081207F00072
:1012F00013080318013E2207F1001D08F002031C29
:10130000F1031E08F1027008A3007108A4001F0871
:101310001207A50013080318013E2007A600700855
:10132000A7007108A8001F081202A9002008031CCA
:10133000013E1302AA001608AB008A11B4228A15D6
:10134000803083120313F0008030031722067002EE
:10135000031DAC292108003C0318D92921081202D9
:10136000F0002208031C013E1302F1001D08F002E8
:10137000031CF1031E08F1027008A3007108A40009
:101380001F081207A50013080318013E2007A60036
:101390007008A7007108A8001F081202A900200801
:1013A000031C013E1302AA001608AB008A11B422E6
:0413B0008A15080092
:1013B40083120313EE018A1129248A15700803137A
:1013C400EE007008013A0319F3292C300317A30027
:1013D4004630A4000530A5000130A6008A117F2202
:1013E4008A1503136E080319DD29192A6130EE00EA
:1013F400412A6430EE00412A6730EE00412A6A3007
:10140400EE00412A6D30EE00412A7030EE00412A90
:101414007430EE00412A7730EE00412A0330C300D5
:101424000130EE00ED01B22A0130EC00B22A6E0860
:10143400023A0319F8296E08033A0319FB296E08C6
:10144400053A0319FE296E08063A0319012A6E08A3
:10145400073A0319042A6E08093A0319072A6E0881
:101464000A3A03190A2A6E080B3A03190D2A6E0860
:101474000D3A0319102A6E080F3A0319162A6E083A
:1014840043060319492AED016E08C3009D2A023060
:101494006D0203184F2AED0A9D2A03306D020318CA
:1014A4009D2A6E08503A03199C2A6E08513A031972
:1014B4009C2A6E08523A03199C2A6E08573A03195B
:1014C4009C2A6E08583A03199C2A6E08593A031943
:1014D4009C2A0030003A031D712A70306E060319ED
:1014E4009C2A0030003A031D792A71306E060319D4
:1014F4009C2A0030003A031D812A72306E060319BB
:101504009C2A0030003A031D892A77306E0603199D
:101514009C2A0030003A031D912A78306E06031984
:101524009C2A0030003A031D992A79306E0603196B
:101534009C2A9D2AED0A6D080317A300A401E33039
:10154400A5008A1143248A1503136D086E07F00061
:101554007008EE002B082C3E840070088000DA2905
:0215640008007D
:1015660083160313851205120510851005118511C2
:1015760083128512051285110511851005108A1131
:1015860041208A158A1141208A158A1141208A151F
:101596008514051485168A110B208A1585128A1161
:1015A60041208A1585168A110B208A1585128A1103
:1015B60041208A1585168A110B208A1585128A11F3
:1015C60041208A15051085168A110B208A15851269
:1015D6008A1141208A1585168A110B208A158512D3
:1015E6008510851585168A110B208A1585128A1194
:1015F60041208A158511051485168A110B208A1536
:101606008512051085168A110B208A1585128A11F6
:1016160041208A1585168A110B208A158512051414
:1016260085168A110B208A1585128A1141208A1582
:10163600051085168A110B208A1585128515051544
:101646008514051485168A110B208A1585128A11B0
:0A16560041208A1583165F14080076
:10166000422B8030831203179000552BC03090001E
:10167000552B94309000552BD4309000552B803052
:101680009000552B831203171008013A0319312BD0
:101690001008023A0319362B1008033A0319392BA4
:1016A0001008043A03193C2B3F2B1103F0001008DB
:1016B000F007700890007008B6008A11D3208A15D0
:1016C00083165F1083120317930113081207840017
:1016D00000080319772B1308120784000008A300E1
:1016E0008A1138248A1583120317930A652B8316EF
:0616F00003135F14080063
:1016F600B3228312031790018A1180278A1520309E
:10170600A3004030A4000130A5000130A6008A11D4
:101716007F228A15053090003730910032309200D2
:10172600013093008A1144278A15283090003C30F6
:10173600910037309200013093008A1108278A15EC
:10174600193090003230910005309200013093003C
:101756008A1108278A15053090000F30910019303C
:101766009200013093008A1144278A152C3090008C
:101776008A112F268A1570080313AA00ED01EE01BF
:10178600C101831203138030003AF0008030420614
:1017960070020318F72CB601AB018A1145268A158B
:1017A600AB01AB012C30031790008A112F268A1546
:1017B60080300313AB1B7F30F2008030710672025B
:1017C600031DE72B70082B0203181F2C2B08373E2E
:1017D60084000008F0007008031DF62B2B08373E26
:1017E60084005F3080002B082C3E840044080006ED
:1017F600031D1D2C2B08373E840000085F3A031D8D
:101806001D2C2B08373E840044088000C10A013095
:10181600B60001300317B6008A11D3208A150130AD
:1018260003179000013091004830920030238A114E
:1018360085248A15AB0AD52B3608003A031D352CAC
:10184600C20301300317B6008A11D3208A1501306E
:101856000317900001309100B430920030238A11B2
:1018660098258A152C30031790008A112F268A1581
:1018760000300313C11BFF307106031D442C700892
:101886004106031D6D2C031790018A1180278A15C6
:10189600BA30A3004130A4000130A5000130A600F3
:1018A6008A117F228A15A530A3004130A400023098
:1018B600A5000130A6008A117F228A15AE30A3004A
:1018C6004130A4000330A5000130A6008A117F2212
:1018D6008A154B2C03173730A3004130A40005307E
:1018E600A5000130A6008A117F228A15E02C031775
:1018F60019309000003091001430920000309300AF
:101906000530940000309500013096000020F62C3A
:101916001930831203179000263091001930920077
:10192600013093008A1144278A15F62C03171E30BE
:10193600A3000030A4002030A5000030A60014301B
:10194600A7000030A8002030A9000030AA0001300E
:10195600AB008A11B4228A15F62C193083120317AC
:10196600A3000030A4002630A5000030A6000F30EA
:10197600A7000030A8003030A9000030AA000130CE
:10198600AB008A11B4228A15F62C1930831203177C
:10199600A3000030A4002630A5000030A6002330A6
:1019A600A7000030A8003030A9000030AA0001309E
:1019B600AB008A11B4228A15F62C8312031342084F
:1019C600053A03197A2C4208043A03198B2C42086B
:1019D600033A0319992C4208023A0319B02C42081B
:1019E600013A0319C82CC42B1A30FB005E30FC00E8
:1019F6006E30FD00FD0BFD2CFC0BFD2CFB0BFD2CB6
:101A060000008312C2300317A3004130A400013046
:101A1600A5000130A6008A117F228A15CB30A300CB
:101A26004130A4000230A5000130A6008A117F22B1
:101A36008A15D430A3004130A4000330A50001303C
:0C1A4600A6008A117F228A15042D0800DA
:101A5200013083120317900001309100A0309200F0
:101A62003023023083120317900001309100573067
:101A7200920030238312EC0163300317A300463037
:101A8200A4000130A5000130A6008A117F228A1528
:101A92005130A3004630A4000230A5000130A60058
:101AA2008A117F228A150313AB016C08003A031DC9
:0C1AB2005E2DED01DA21AB0A562D080074
:101ABE0083160313E2018612061206118611061012
:101ACE008610831286128030F0007008083E840063
:101ADE008001061186110610861486163F30880086
:101AEE008A1111208A15C03088008A1111208A159A
:101AFE00061486103F3088008A1111208A15C030D6
:0A1B0E0088008A1111208A150800D2
:101B1800803083120313F0007008073E8400FF3002
:041B28008000080031
:101B2C008A110A165C208A150A128316031788017B
:101B3C008901031389018312ED018C25B322013035
:101B4C0083120317B6008A11D3208A150C300317A1
:101B5C00B6008A11D3208A155F25031790018A11CC
:101B6C0080278A150330031389003330FB00BB3008
:101B7C00FC00DF30FD00FD0BC12DFC0BC12DFB0B60
:101B8C00C12D00000000AB01EC01AB01AA01063035
:101B9C00C20029257B23013083160313ED000A3084
:101BAC00EE0083126E088316EF008A11B4278A1593
:101BBC0083126D080317A300A401E330A5008A115A
:081BCC0043248A15B82DE92D10
:1020B800203084004C3083120313F0000030831664
:1020C800DA001030DB000A12EF270A16A03084006D
:1020D8002B3083120313F000CB308316DA000F3055
:1020E800DB000A12EF270A166C30840001308312D5
:1020F8000313F000FB308316DA000730DB000A1206
:10210800EF270A16CB3084000F3083120313F00038
:102118004C308316DA001030DB000A12EF270A165B
:022128000800AD
:020FF6000034C5
:101BD60000340034003400340034003400345F3400
:101BE600003400340034073400340734003414342D
:101BF6007F3414347F34143424342A347F342A3422
:101C06001234233413340834643462343634493499
:101C1600553422345034003405340334003400344F
:101C260000341C342234413400340034413422342C
:101C36001C34003408342A341C342A34083408345A
:101C460008343E3408340834003450343034003418
:101C56000034083408340834083408340034303486
:101C66003034003400342034103408340434023460
:101C76003E345134493445343E34003442347F34A2
:101C860040340034423461345134493446342134CA
:101C9600413445344B3431341834143412347F34DF
:101CA6001034273445344534453439343C344A34C9
:101CB6004934493430340134713409340534033439
:101CC600363449344934493436340634493449348F
:101CD60029341E34003436343634003400340034AB
:101CE6005634363400340034003408341434223484
:101CF6004134143414341434143414344134223436
:101D060014340834003402340134513409340634AE
:101D160032344934793441343E347E34113411340A
:101D260011347E347F3449344934493436343E34B0
:101D360041344134413422347F34413441342234F5
:101D46001C347F3449344934493441347F340934AE
:101D56000934013401343E3441344134513432348F
:101D66007F340834083408347F34003441347F34F7
:101D7600413400342034403441343F3401347F341C
:101D860008341434223441347F34403440344034EF
:101D960040347F340234043402347F347F340434D4
:101DA600083410347F343E344134413441343E34B7
:101DB6007F3409340934093406343E34413451340D
:101DC60021345E347F340934193429344634463498
:101DD6004934493449343134013401347F340134CF
:101DE60001343F344034403440343F341F342034CF
:101DF600403420341F347F342034183420347F3468
:101E060063341434083414346334033404347834B7
:101E16000434033461345134493445344334003492
:101E260000347F34413441340234043408341034ED
:101E36002034413441347F340034003404340234D5
:101E460001340234043440344034403440344034A5
:101E5600003401340234043400342034543454340D
:101E6600543478347F344834443444343834383441
:101E760044344434443420343834443444344834C8
:101E86007F343834543454345434183408347E345B
:101E960009340134023408341434543454343C3490
:101EA6007F340834043404347834003444347D34C4
:101EB600403400342034403444343D34003400345B
:101EC6007F34103428344434003441347F34403471
:101ED60000347C3404341834043478347C340834C4
:101EE6000434043478343834443444344434383490
:101EF6007C3414341434143408340834143414344C
:101F060018347C347C3408340434043408344834BB
:101F1600543454345434203404343F344434403438
:101F260020343C344034403420347C341C34203457
:101F3600403420341C343C344034303440343C3457
:101F4600443428341034283444340C345034503457
:101F560050343C344434643454344C3444340034C3
:101F66000834363441340034003400347F340034CD
:101F7600003400344134363408340034083408342C
:101F86002A341C34083408341C342A3408340834FF
:0A1F96002A3420344F346B34003439
:101FA000503472346534733469346F346E3465344C
:021FB0000034FB
:0C1FB200523465347334653474340034E8
:0C1FBE00463461346C346C346F340034F1
:101FCA00473441344E34413444344F34523400346B
:101FDA005034453452344434453444344F34523402
:021FEA000034C1
:10200000413464346934763469346E346134723402
:042010003A3400342A
:02201400003496
:02201600003494
:102018000034003400340034003400340034003418
:04202800003400344C
:02202C0000347E
:10202E000034003400340034003400340034003402
:04203E000034003436
:02204200003468
:02204400063460
:02204600003464
:04204800003400342C
:04204C000034003428
:1020500043346F34723472346534633474346F349F
:0220600000344A
:0C2062005334653474343A3420340034B4
:10206E00233420347434653472346D3469346E34F0
:08207E00613464346F34003456
:1020860049346E34673472346534733465342034BD
:02209600003414
:10209800503472346534733469346F346E34653453
:0220A800003402
:0C20AA00523465347334653474340034EF
:04400E00F22F000786
:00000001FF
